{
  "_format": "hh-sol-artifact-1",
  "contractName": "NeuroSyncToken",
  "sourceName": "contracts/RewardToken.sol",
  "abi": [
    {
      "inputs": [
        {
          "internalType": "address",
          "name": "initialOwner",
          "type": "address"
        }
      ],
      "stateMutability": "nonpayable",
      "type": "constructor"
    },
    {
      "inputs": [
        {
          "internalType": "address",
          "name": "spender",
          "type": "address"
        },
        {
          "internalType": "uint256",
          "name": "allowance",
          "type": "uint256"
        },
        {
          "internalType": "uint256",
          "name": "needed",
          "type": "uint256"
        }
      ],
      "name": "ERC20InsufficientAllowance",
      "type": "error"
    },
    {
      "inputs": [
        {
          "internalType": "address",
          "name": "sender",
          "type": "address"
        },
        {
          "internalType": "uint256",
          "name": "balance",
          "type": "uint256"
        },
        {
          "internalType": "uint256",
          "name": "needed",
          "type": "uint256"
        }
      ],
      "name": "ERC20InsufficientBalance",
      "type": "error"
    },
    {
      "inputs": [
        {
          "internalType": "address",
          "name": "approver",
          "type": "address"
        }
      ],
      "name": "ERC20InvalidApprover",
      "type": "error"
    },
    {
      "inputs": [
        {
          "internalType": "address",
          "name": "receiver",
          "type": "address"
        }
      ],
      "name": "ERC20InvalidReceiver",
      "type": "error"
    },
    {
      "inputs": [
        {
          "internalType": "address",
          "name": "sender",
          "type": "address"
        }
      ],
      "name": "ERC20InvalidSender",
      "type": "error"
    },
    {
      "inputs": [
        {
          "internalType": "address",
          "name": "spender",
          "type": "address"
        }
      ],
      "name": "ERC20InvalidSpender",
      "type": "error"
    },
    {
      "inputs": [
        {
          "internalType": "address",
          "name": "owner",
          "type": "address"
        }
      ],
      "name": "OwnableInvalidOwner",
      "type": "error"
    },
    {
      "inputs": [
        {
          "internalType": "address",
          "name": "account",
          "type": "address"
        }
      ],
      "name": "OwnableUnauthorizedAccount",
      "type": "error"
    },
    {
      "anonymous": false,
      "inputs": [
        {
          "indexed": true,
          "internalType": "address",
          "name": "owner",
          "type": "address"
        },
        {
          "indexed": true,
          "internalType": "address",
          "name": "spender",
          "type": "address"
        },
        {
          "indexed": false,
          "internalType": "uint256",
          "name": "value",
          "type": "uint256"
        }
      ],
      "name": "Approval",
      "type": "event"
    },
    {
      "anonymous": false,
      "inputs": [
        {
          "indexed": true,
          "internalType": "address",
          "name": "previousOwner",
          "type": "address"
        },
        {
          "indexed": true,
          "internalType": "address",
          "name": "newOwner",
          "type": "address"
        }
      ],
      "name": "OwnershipTransferred",
      "type": "event"
    },
    {
      "anonymous": false,
      "inputs": [
        {
          "indexed": true,
          "internalType": "address",
          "name": "user",
          "type": "address"
        },
        {
          "indexed": false,
          "internalType": "string",
          "name": "action",
          "type": "string"
        },
        {
          "indexed": false,
          "internalType": "uint256",
          "name": "amount",
          "type": "uint256"
        }
      ],
      "name": "RewardEarned",
      "type": "event"
    },
    {
      "anonymous": false,
      "inputs": [
        {
          "indexed": true,
          "internalType": "address",
          "name": "user",
          "type": "address"
        },
        {
          "indexed": false,
          "internalType": "string",
          "name": "service",
          "type": "string"
        },
        {
          "indexed": false,
          "internalType": "uint256",
          "name": "amount",
          "type": "uint256"
        }
      ],
      "name": "RewardRedeemed",
      "type": "event"
    },
    {
      "anonymous": false,
      "inputs": [
        {
          "indexed": true,
          "internalType": "address",
          "name": "from",
          "type": "address"
        },
        {
          "indexed": true,
          "internalType": "address",
          "name": "to",
          "type": "address"
        },
        {
          "indexed": false,
          "internalType": "uint256",
          "name": "value",
          "type": "uint256"
        }
      ],
      "name": "Transfer",
      "type": "event"
    },
    {
      "inputs": [
        {
          "internalType": "address",
          "name": "owner",
          "type": "address"
        },
        {
          "internalType": "address",
          "name": "spender",
          "type": "address"
        }
      ],
      "name": "allowance",
      "outputs": [
        {
          "internalType": "uint256",
          "name": "",
          "type": "uint256"
        }
      ],
      "stateMutability": "view",
      "type": "function"
    },
    {
      "inputs": [
        {
          "internalType": "address",
          "name": "spender",
          "type": "address"
        },
        {
          "internalType": "uint256",
          "name": "value",
          "type": "uint256"
        }
      ],
      "name": "approve",
      "outputs": [
        {
          "internalType": "bool",
          "name": "",
          "type": "bool"
        }
      ],
      "stateMutability": "nonpayable",
      "type": "function"
    },
    {
      "inputs": [
        {
          "internalType": "address",
          "name": "account",
          "type": "address"
        }
      ],
      "name": "balanceOf",
      "outputs": [
        {
          "internalType": "uint256",
          "name": "",
          "type": "uint256"
        }
      ],
      "stateMutability": "view",
      "type": "function"
    },
    {
      "inputs": [
        {
          "internalType": "uint256",
          "name": "value",
          "type": "uint256"
        }
      ],
      "name": "burn",
      "outputs": [],
      "stateMutability": "nonpayable",
      "type": "function"
    },
    {
      "inputs": [
        {
          "internalType": "address",
          "name": "account",
          "type": "address"
        },
        {
          "internalType": "uint256",
          "name": "value",
          "type": "uint256"
        }
      ],
      "name": "burnFrom",
      "outputs": [],
      "stateMutability": "nonpayable",
      "type": "function"
    },
    {
      "inputs": [],
      "name": "decimals",
      "outputs": [
        {
          "internalType": "uint8",
          "name": "",
          "type": "uint8"
        }
      ],
      "stateMutability": "view",
      "type": "function"
    },
    {
      "inputs": [
        {
          "internalType": "address",
          "name": "",
          "type": "address"
        }
      ],
      "name": "lastRewardTimestamp",
      "outputs": [
        {
          "internalType": "uint256",
          "name": "",
          "type": "uint256"
        }
      ],
      "stateMutability": "view",
      "type": "function"
    },
    {
      "inputs": [],
      "name": "name",
      "outputs": [
        {
          "internalType": "string",
          "name": "",
          "type": "string"
        }
      ],
      "stateMutability": "view",
      "type": "function"
    },
    {
      "inputs": [],
      "name": "owner",
      "outputs": [
        {
          "internalType": "address",
          "name": "",
          "type": "address"
        }
      ],
      "stateMutability": "view",
      "type": "function"
    },
    {
      "inputs": [
        {
          "internalType": "address",
          "name": "user",
          "type": "address"
        },
        {
          "internalType": "string",
          "name": "service",
          "type": "string"
        },
        {
          "internalType": "uint256",
          "name": "amount",
          "type": "uint256"
        }
      ],
      "name": "redeemTokens",
      "outputs": [],
      "stateMutability": "nonpayable",
      "type": "function"
    },
    {
      "inputs": [],
      "name": "renounceOwnership",
      "outputs": [],
      "stateMutability": "nonpayable",
      "type": "function"
    },
    {
      "inputs": [
        {
          "internalType": "string",
          "name": "",
          "type": "string"
        }
      ],
      "name": "rewardAmounts",
      "outputs": [
        {
          "internalType": "uint256",
          "name": "",
          "type": "uint256"
        }
      ],
      "stateMutability": "view",
      "type": "function"
    },
    {
      "inputs": [
        {
          "internalType": "string",
          "name": "",
          "type": "string"
        }
      ],
      "name": "rewardCooldowns",
      "outputs": [
        {
          "internalType": "uint256",
          "name": "",
          "type": "uint256"
        }
      ],
      "stateMutability": "view",
      "type": "function"
    },
    {
      "inputs": [
        {
          "internalType": "address",
          "name": "user",
          "type": "address"
        },
        {
          "internalType": "string",
          "name": "action",
          "type": "string"
        }
      ],
      "name": "rewardUser",
      "outputs": [],
      "stateMutability": "nonpayable",
      "type": "function"
    },
    {
      "inputs": [
        {
          "internalType": "string",
          "name": "action",
          "type": "string"
        },
        {
          "internalType": "uint256",
          "name": "cooldownPeriod",
          "type": "uint256"
        }
      ],
      "name": "setCooldownPeriod",
      "outputs": [],
      "stateMutability": "nonpayable",
      "type": "function"
    },
    {
      "inputs": [
        {
          "internalType": "string",
          "name": "action",
          "type": "string"
        },
        {
          "internalType": "uint256",
          "name": "amount",
          "type": "uint256"
        }
      ],
      "name": "setRewardAmount",
      "outputs": [],
      "stateMutability": "nonpayable",
      "type": "function"
    },
    {
      "inputs": [],
      "name": "symbol",
      "outputs": [
        {
          "internalType": "string",
          "name": "",
          "type": "string"
        }
      ],
      "stateMutability": "view",
      "type": "function"
    },
    {
      "inputs": [],
      "name": "totalSupply",
      "outputs": [
        {
          "internalType": "uint256",
          "name": "",
          "type": "uint256"
        }
      ],
      "stateMutability": "view",
      "type": "function"
    },
    {
      "inputs": [
        {
          "internalType": "address",
          "name": "to",
          "type": "address"
        },
        {
          "internalType": "uint256",
          "name": "value",
          "type": "uint256"
        }
      ],
      "name": "transfer",
      "outputs": [
        {
          "internalType": "bool",
          "name": "",
          "type": "bool"
        }
      ],
      "stateMutability": "nonpayable",
      "type": "function"
    },
    {
      "inputs": [
        {
          "internalType": "address",
          "name": "from",
          "type": "address"
        },
        {
          "internalType": "address",
          "name": "to",
          "type": "address"
        },
        {
          "internalType": "uint256",
          "name": "value",
          "type": "uint256"
        }
      ],
      "name": "transferFrom",
      "outputs": [
        {
          "internalType": "bool",
          "name": "",
          "type": "bool"
        }
      ],
      "stateMutability": "nonpayable",
      "type": "function"
    },
    {
      "inputs": [
        {
          "internalType": "address",
          "name": "newOwner",
          "type": "address"
        }
      ],
      "name": "transferOwnership",
      "outputs": [],
      "stateMutability": "nonpayable",
      "type": "function"
    }
  ],
  "bytecode": "0x60806040523480156200001157600080fd5b50604051620016c5380380620016c58339810160408190526200003491620004a5565b806040518060400160405280600f81526020016e2732bab937a9bcb731902a37b5b2b760891b815250604051806040016040528060058152602001644e4555524f60d81b81525081600390816200008c91906200057c565b5060046200009b82826200057c565b5050506001600160a01b038116620000ce57604051631e4fbdf760e01b8152600060048201526024015b60405180910390fd5b620000d981620002e2565b50620000e86012600a6200075d565b620000f59060056200076e565b6040516c3230b4b63cafb1b432b1b5b4b760991b8152600890600d01908152604051908190036020019020556200012a601290565b6200013790600a6200075d565b6200014490600a6200076e565b6040516f73657373696f6e5f636f6d706c65746560801b8152600890601001908152604051908190036020019020556200017c601290565b6200018990600a6200075d565b620001969060196200076e565b6040516a1dd9595adb1e57d9dbd85b60aa1b8152600890600b0190815260405190819003602001902055620001c9601290565b620001d690600a6200075d565b620001e39060646200076e565b604080516d6d6f6e74686c795f73747265616b60901b8082526008600e80840191909152835192839003602e9081018420959095556c3230b4b63cafb1b432b1b5b4b760991b83526007600d8401819052845193849003602d0184206201518090556f73657373696f6e5f636f6d706c65746560801b845260108401819052845193849003603001842061384090556a1dd9595adb1e57d9dbd85b60aa1b8452600b8401819052845193849003602b01842062093a809055918352820152905190819003909101902062278d009055620002db816012620002c690600a6200075d565b620002d590620f42406200076e565b62000334565b506200079e565b600580546001600160a01b038381166001600160a01b0319831681179093556040519116919082907f8be0079c531659141344cd1fd0a4f28419497f9722a3daafe3b4186f6b6457e090600090a35050565b6001600160a01b038216620003605760405163ec442f0560e01b815260006004820152602401620000c5565b6200036e6000838362000372565b5050565b6001600160a01b038316620003a157806002600082825462000395919062000788565b90915550620004159050565b6001600160a01b03831660009081526020819052604090205481811015620003f65760405163391434e360e21b81526001600160a01b03851660048201526024810182905260448101839052606401620000c5565b6001600160a01b03841660009081526020819052604090209082900390555b6001600160a01b038216620004335760028054829003905562000452565b6001600160a01b03821660009081526020819052604090208054820190555b816001600160a01b0316836001600160a01b03167fddf252ad1be2c89b69c2b068fc378daa952ba7f163c4a11628f55a4df523b3ef836040516200049891815260200190565b60405180910390a3505050565b600060208284031215620004b857600080fd5b81516001600160a01b0381168114620004d057600080fd5b9392505050565b634e487b7160e01b600052604160045260246000fd5b600181811c908216806200050257607f821691505b6020821081036200052357634e487b7160e01b600052602260045260246000fd5b50919050565b601f8211156200057757600081815260208120601f850160051c81016020861015620005525750805b601f850160051c820191505b8181101562000573578281556001016200055e565b5050505b505050565b81516001600160401b03811115620005985762000598620004d7565b620005b081620005a98454620004ed565b8462000529565b602080601f831160018114620005e85760008415620005cf5750858301515b600019600386901b1c1916600185901b17855562000573565b600085815260208120601f198616915b828110156200061957888601518255948401946001909101908401620005f8565b5085821015620006385787850151600019600388901b60f8161c191681555b5050505050600190811b01905550565b634e487b7160e01b600052601160045260246000fd5b600181815b808511156200069f57816000190482111562000683576200068362000648565b808516156200069157918102915b93841c939080029062000663565b509250929050565b600082620006b85750600162000757565b81620006c75750600062000757565b8160018114620006e05760028114620006eb576200070b565b600191505062000757565b60ff841115620006ff57620006ff62000648565b50506001821b62000757565b5060208310610133831016604e8410600b841016171562000730575081810a62000757565b6200073c83836200065e565b806000190482111562000753576200075362000648565b0290505b92915050565b6000620004d060ff841683620006a7565b808202811582820484141762000757576200075762000648565b8082018082111562000757576200075762000648565b610f1780620007ae6000396000f3fe608060405234801561001057600080fd5b50600436106101375760003560e01c8063715018a6116100b857806395d89b411161007c57806395d89b411461029c578063a9059cbb146102a4578063dd62ed3e146102b7578063ec9c9f89146102f0578063f2fde38b14610310578063f6018da01461032357600080fd5b8063715018a61461022857806379cc679014610230578063830650fb146102435780638da5cb5b1461026e578063929f41ad1461028957600080fd5b806323b872dd116100ff57806323b872dd146101b7578063313ce567146101ca57806338a53ef0146101d957806342966c68146101ec57806370a08231146101ff57600080fd5b806306fdde031461013c578063078e0b941461015a578063095ea7b31461016f5780630cb7d5c21461019257806318160ddd146101a5575b600080fd5b61014461034e565b6040516101519190610b7b565b60405180910390f35b61016d610168366004610c54565b6103e0565b005b61018261017d366004610ca2565b610580565b6040519015158152602001610151565b61016d6101a0366004610ccc565b61059a565b6002545b604051908152602001610151565b6101826101c5366004610d11565b6105c7565b60405160128152602001610151565b61016d6101e7366004610d4d565b6105eb565b61016d6101fa366004610da4565b6106a6565b6101a961020d366004610dbd565b6001600160a01b031660009081526020819052604090205490565b61016d6106b3565b61016d61023e366004610ca2565b6106c7565b6101a9610251366004610dd8565b805160208183018101805160078252928201919093012091525481565b6005546040516001600160a01b039091168152602001610151565b61016d610297366004610ccc565b6106e0565b6101446106f9565b6101826102b2366004610ca2565b610708565b6101a96102c5366004610e15565b6001600160a01b03918216600090815260016020908152604080832093909416825291909152205490565b6101a96102fe366004610dbd565b60066020526000908152604090205481565b61016d61031e366004610dbd565b610716565b6101a9610331366004610dd8565b805160208183018101805160088252928201919093012091525481565b60606003805461035d90610e48565b80601f016020809104026020016040519081016040528092919081815260200182805461038990610e48565b80156103d65780601f106103ab576101008083540402835291602001916103d6565b820191906000526020600020905b8154815290600101906020018083116103b957829003601f168201915b5050505050905090565b6103e8610751565b60006008826040516103fa9190610e82565b908152602001604051809103902054116104515760405162461bcd60e51b8152602060048201526013602482015272496e76616c696420616374696f6e207479706560681b60448201526064015b60405180910390fd5b6007816040516104619190610e82565b90815260200160405180910390205460066000846001600160a01b03166001600160a01b03168152602001908152602001600020546104a09190610e9e565b4210156104ef5760405162461bcd60e51b815260206004820152601b60248201527f436f6f6c646f776e20706572696f64206e6f7420656c617073656400000000006044820152606401610448565b60006008826040516105019190610e82565b9081526040805160209281900383019020546001600160a01b0386166000908152600690935291204290559050610538838261077e565b826001600160a01b03167f65b2b9fe46b667514ea5668f80e6add8c819281c7fadaae053ab6e876d59fa308383604051610573929190610ebf565b60405180910390a2505050565b60003361058e8185856107b4565b60019150505b92915050565b6105a2610751565b806008836040516105b39190610e82565b908152604051908190036020019020555050565b6000336105d58582856107c6565b6105e0858585610845565b506001949350505050565b6105f3610751565b80610613846001600160a01b031660009081526020819052604090205490565b10156106615760405162461bcd60e51b815260206004820152601a60248201527f496e73756666696369656e7420746f6b656e2062616c616e63650000000000006044820152606401610448565b61066b83826108a4565b826001600160a01b03167f01920a4be11e30aa717494a6b60b39a85413001bdaf100e249aeed3e0a1b20a78383604051610573929190610ebf565b6106b033826108a4565b50565b6106bb610751565b6106c560006108da565b565b6106d28233836107c6565b6106dc82826108a4565b5050565b6106e8610751565b806007836040516105b39190610e82565b60606004805461035d90610e48565b60003361058e818585610845565b61071e610751565b6001600160a01b03811661074857604051631e4fbdf760e01b815260006004820152602401610448565b6106b0816108da565b6005546001600160a01b031633146106c55760405163118cdaa760e01b8152336004820152602401610448565b6001600160a01b0382166107a85760405163ec442f0560e01b815260006004820152602401610448565b6106dc6000838361092c565b6107c18383836001610a56565b505050565b6001600160a01b0383811660009081526001602090815260408083209386168352929052205460001981101561083f578181101561083057604051637dc7a0d960e11b81526001600160a01b03841660048201526024810182905260448101839052606401610448565b61083f84848484036000610a56565b50505050565b6001600160a01b03831661086f57604051634b637e8f60e11b815260006004820152602401610448565b6001600160a01b0382166108995760405163ec442f0560e01b815260006004820152602401610448565b6107c183838361092c565b6001600160a01b0382166108ce57604051634b637e8f60e11b815260006004820152602401610448565b6106dc8260008361092c565b600580546001600160a01b038381166001600160a01b0319831681179093556040519116919082907f8be0079c531659141344cd1fd0a4f28419497f9722a3daafe3b4186f6b6457e090600090a35050565b6001600160a01b03831661095757806002600082825461094c9190610e9e565b909155506109c99050565b6001600160a01b038316600090815260208190526040902054818110156109aa5760405163391434e360e21b81526001600160a01b03851660048201526024810182905260448101839052606401610448565b6001600160a01b03841660009081526020819052604090209082900390555b6001600160a01b0382166109e557600280548290039055610a04565b6001600160a01b03821660009081526020819052604090208054820190555b816001600160a01b0316836001600160a01b03167fddf252ad1be2c89b69c2b068fc378daa952ba7f163c4a11628f55a4df523b3ef83604051610a4991815260200190565b60405180910390a3505050565b6001600160a01b038416610a805760405163e602df0560e01b815260006004820152602401610448565b6001600160a01b038316610aaa57604051634a1406b160e11b815260006004820152602401610448565b6001600160a01b038085166000908152600160209081526040808320938716835292905220829055801561083f57826001600160a01b0316846001600160a01b03167f8c5be1e5ebec7d5bd14f71427d1e84f3dd0314c0f7b2291e5b200ac8c7c3b92584604051610b1d91815260200190565b60405180910390a350505050565b60005b83811015610b46578181015183820152602001610b2e565b50506000910152565b60008151808452610b67816020860160208601610b2b565b601f01601f19169290920160200192915050565b602081526000610b8e6020830184610b4f565b9392505050565b80356001600160a01b0381168114610bac57600080fd5b919050565b634e487b7160e01b600052604160045260246000fd5b600082601f830112610bd857600080fd5b813567ffffffffffffffff80821115610bf357610bf3610bb1565b604051601f8301601f19908116603f01168101908282118183101715610c1b57610c1b610bb1565b81604052838152866020858801011115610c3457600080fd5b836020870160208301376000602085830101528094505050505092915050565b60008060408385031215610c6757600080fd5b610c7083610b95565b9150602083013567ffffffffffffffff811115610c8c57600080fd5b610c9885828601610bc7565b9150509250929050565b60008060408385031215610cb557600080fd5b610cbe83610b95565b946020939093013593505050565b60008060408385031215610cdf57600080fd5b823567ffffffffffffffff811115610cf657600080fd5b610d0285828601610bc7565b95602094909401359450505050565b600080600060608486031215610d2657600080fd5b610d2f84610b95565b9250610d3d60208501610b95565b9150604084013590509250925092565b600080600060608486031215610d6257600080fd5b610d6b84610b95565b9250602084013567ffffffffffffffff811115610d8757600080fd5b610d9386828701610bc7565b925050604084013590509250925092565b600060208284031215610db657600080fd5b5035919050565b600060208284031215610dcf57600080fd5b610b8e82610b95565b600060208284031215610dea57600080fd5b813567ffffffffffffffff811115610e0157600080fd5b610e0d84828501610bc7565b949350505050565b60008060408385031215610e2857600080fd5b610e3183610b95565b9150610e3f60208401610b95565b90509250929050565b600181811c90821680610e5c57607f821691505b602082108103610e7c57634e487b7160e01b600052602260045260246000fd5b50919050565b60008251610e94818460208701610b2b565b9190910192915050565b8082018082111561059457634e487b7160e01b600052601160045260246000fd5b604081526000610ed26040830185610b4f565b9050826020830152939250505056fea26469706673582212201bcf9ed33a5d31472522d68035f2a2d9d66b9d0fa9badf31958ea6c3a72439a664736f6c63430008140033",
  "linkReferences": {},
  "deployedLinkReferences": {}
}