{
  "_format": "hh-sol-artifact-1",
  "contractName": "UserData",
  "sourceName": "contracts/UserData.sol",
  "abi": [
    {
      "inputs": [
        {
          "internalType": "address",
          "name": "initialOwner",
          "type": "address"
        }
      ],
      "stateMutability": "nonpayable",
      "type": "constructor"
    },
    {
      "inputs": [
        {
          "internalType": "address",
          "name": "owner",
          "type": "address"
        }
      ],
      "name": "OwnableInvalidOwner",
      "type": "error"
    },
    {
      "inputs": [
        {
          "internalType": "address",
          "name": "account",
          "type": "address"
        }
      ],
      "name": "OwnableUnauthorizedAccount",
      "type": "error"
    },
    {
      "anonymous": false,
      "inputs": [
        {
          "indexed": true,
          "internalType": "address",
          "name": "user",
          "type": "address"
        },
        {
          "indexed": true,
          "internalType": "address",
          "name": "therapist",
          "type": "address"
        },
        {
          "indexed": false,
          "internalType": "uint256",
          "name": "expiration",
          "type": "uint256"
        }
      ],
      "name": "AccessGranted",
      "type": "event"
    },
    {
      "anonymous": false,
      "inputs": [
        {
          "indexed": true,
          "internalType": "address",
          "name": "user",
          "type": "address"
        },
        {
          "indexed": true,
          "internalType": "address",
          "name": "therapist",
          "type": "address"
        }
      ],
      "name": "AccessRevoked",
      "type": "event"
    },
    {
      "anonymous": false,
      "inputs": [
        {
          "indexed": true,
          "internalType": "address",
          "name": "user",
          "type": "address"
        },
        {
          "indexed": false,
          "internalType": "uint256",
          "name": "index",
          "type": "uint256"
        }
      ],
      "name": "DataRemoved",
      "type": "event"
    },
    {
      "anonymous": false,
      "inputs": [
        {
          "indexed": true,
          "internalType": "address",
          "name": "user",
          "type": "address"
        },
        {
          "indexed": false,
          "internalType": "uint256",
          "name": "index",
          "type": "uint256"
        },
        {
          "indexed": false,
          "internalType": "string",
          "name": "dataType",
          "type": "string"
        }
      ],
      "name": "DataStored",
      "type": "event"
    },
    {
      "anonymous": false,
      "inputs": [
        {
          "indexed": true,
          "internalType": "address",
          "name": "previousOwner",
          "type": "address"
        },
        {
          "indexed": true,
          "internalType": "address",
          "name": "newOwner",
          "type": "address"
        }
      ],
      "name": "OwnershipTransferred",
      "type": "event"
    },
    {
      "inputs": [
        {
          "internalType": "address",
          "name": "user",
          "type": "address"
        }
      ],
      "name": "getAllData",
      "outputs": [
        {
          "components": [
            {
              "internalType": "string",
              "name": "cid",
              "type": "string"
            },
            {
              "internalType": "bool",
              "name": "isEncrypted",
              "type": "bool"
            },
            {
              "internalType": "uint256",
              "name": "timestamp",
              "type": "uint256"
            },
            {
              "internalType": "string",
              "name": "dataType",
              "type": "string"
            }
          ],
          "internalType": "struct UserData.DataEntry[]",
          "name": "",
          "type": "tuple[]"
        }
      ],
      "stateMutability": "view",
      "type": "function"
    },
    {
      "inputs": [
        {
          "internalType": "address",
          "name": "user",
          "type": "address"
        },
        {
          "internalType": "uint256",
          "name": "index",
          "type": "uint256"
        }
      ],
      "name": "getData",
      "outputs": [
        {
          "components": [
            {
              "internalType": "string",
              "name": "cid",
              "type": "string"
            },
            {
              "internalType": "bool",
              "name": "isEncrypted",
              "type": "bool"
            },
            {
              "internalType": "uint256",
              "name": "timestamp",
              "type": "uint256"
            },
            {
              "internalType": "string",
              "name": "dataType",
              "type": "string"
            }
          ],
          "internalType": "struct UserData.DataEntry",
          "name": "",
          "type": "tuple"
        }
      ],
      "stateMutability": "view",
      "type": "function"
    },
    {
      "inputs": [
        {
          "internalType": "address",
          "name": "user",
          "type": "address"
        },
        {
          "internalType": "string",
          "name": "dataType",
          "type": "string"
        }
      ],
      "name": "getDataCountByType",
      "outputs": [
        {
          "internalType": "uint256",
          "name": "",
          "type": "uint256"
        }
      ],
      "stateMutability": "view",
      "type": "function"
    },
    {
      "inputs": [
        {
          "internalType": "address",
          "name": "therapist",
          "type": "address"
        },
        {
          "internalType": "uint256",
          "name": "expiration",
          "type": "uint256"
        }
      ],
      "name": "grantAccess",
      "outputs": [],
      "stateMutability": "nonpayable",
      "type": "function"
    },
    {
      "inputs": [
        {
          "internalType": "address",
          "name": "user",
          "type": "address"
        },
        {
          "internalType": "address",
          "name": "therapist",
          "type": "address"
        }
      ],
      "name": "hasTherapistAccess",
      "outputs": [
        {
          "internalType": "bool",
          "name": "",
          "type": "bool"
        }
      ],
      "stateMutability": "view",
      "type": "function"
    },
    {
      "inputs": [],
      "name": "owner",
      "outputs": [
        {
          "internalType": "address",
          "name": "",
          "type": "address"
        }
      ],
      "stateMutability": "view",
      "type": "function"
    },
    {
      "inputs": [
        {
          "internalType": "uint256",
          "name": "index",
          "type": "uint256"
        }
      ],
      "name": "removeData",
      "outputs": [],
      "stateMutability": "nonpayable",
      "type": "function"
    },
    {
      "inputs": [],
      "name": "renounceOwnership",
      "outputs": [],
      "stateMutability": "nonpayable",
      "type": "function"
    },
    {
      "inputs": [
        {
          "internalType": "address",
          "name": "therapist",
          "type": "address"
        }
      ],
      "name": "revokeAccess",
      "outputs": [],
      "stateMutability": "nonpayable",
      "type": "function"
    },
    {
      "inputs": [
        {
          "internalType": "address",
          "name": "user",
          "type": "address"
        },
        {
          "internalType": "string",
          "name": "cid",
          "type": "string"
        },
        {
          "internalType": "bool",
          "name": "isEncrypted",
          "type": "bool"
        },
        {
          "internalType": "string",
          "name": "dataType",
          "type": "string"
        }
      ],
      "name": "storeData",
      "outputs": [],
      "stateMutability": "nonpayable",
      "type": "function"
    },
    {
      "inputs": [
        {
          "internalType": "address",
          "name": "",
          "type": "address"
        },
        {
          "internalType": "address",
          "name": "",
          "type": "address"
        }
      ],
      "name": "therapistAccess",
      "outputs": [
        {
          "internalType": "bool",
          "name": "hasAccess",
          "type": "bool"
        },
        {
          "internalType": "uint256",
          "name": "expiration",
          "type": "uint256"
        }
      ],
      "stateMutability": "view",
      "type": "function"
    },
    {
      "inputs": [
        {
          "internalType": "address",
          "name": "newOwner",
          "type": "address"
        }
      ],
      "name": "transferOwnership",
      "outputs": [],
      "stateMutability": "nonpayable",
      "type": "function"
    },
    {
      "inputs": [
        {
          "internalType": "address",
          "name": "",
          "type": "address"
        }
      ],
      "name": "userDataCount",
      "outputs": [
        {
          "internalType": "uint256",
          "name": "",
          "type": "uint256"
        }
      ],
      "stateMutability": "view",
      "type": "function"
    }
  ],
  "bytecode": "0x608060405234801561001057600080fd5b506040516114cd3803806114cd83398101604081905261002f916100be565b806001600160a01b03811661005e57604051631e4fbdf760e01b81526000600482015260240160405180910390fd5b6100678161006e565b50506100ee565b600080546001600160a01b038381166001600160a01b0319831681178455604051919092169283917f8be0079c531659141344cd1fd0a4f28419497f9722a3daafe3b4186f6b6457e09190a35050565b6000602082840312156100d057600080fd5b81516001600160a01b03811681146100e757600080fd5b9392505050565b6113d0806100fd6000396000f3fe608060405234801561001057600080fd5b50600436106100cf5760003560e01c8063820bbeb41161008c5780638da5cb5b116100665780638da5cb5b146101fc5780639df8925614610217578063a94840bb1461022a578063f2fde38b1461023d57600080fd5b8063820bbeb41461017a57806385e685311461019a5780638c65897c146101ad57600080fd5b806304d5e12c146100d45780630b37c02d146100e95780632979d025146101115780633030e1881461013157806367e737f714610152578063715018a614610172575b600080fd5b6100e76100e2366004610eaf565b610250565b005b6100fc6100f7366004610f3d565b6103eb565b60405190151581526020015b60405180910390f35b61012461011f366004610f70565b610474565b604051610108919061102d565b61014461013f366004611047565b6106dc565b604051908152602001610108565b610165610160366004611095565b610831565b60405161010891906110b0565b6100e7610a49565b610144610188366004611095565b60026020526000908152604090205481565b6100e76101a8366004611095565b610a5d565b6101e56101bb366004610f3d565b60036020908152600092835260408084209091529082529020805460019091015460ff9091169082565b604080519215158352602083019190915201610108565b6000546040516001600160a01b039091168152602001610108565b6100e7610225366004610f70565b610b26565b6100e7610238366004611112565b610c58565b6100e761024b366004611095565b610d35565b6000546001600160a01b03163314806102715750336001600160a01b038516145b6102c25760405162461bcd60e51b815260206004820152601c60248201527f4e6f7420617574686f72697a656420746f2073746f726520646174610000000060448201526064015b60405180910390fd5b604080516080810182528481528315156020808301919091524282840152606082018490526001600160a01b0387166000908152600180835293812080549485018155815220815191928392600490910290910190819061032390826111b4565b50602082015160018201805460ff1916911515919091179055604082015160028201556060820151600382019061035a90826111b4565b5050506001600160a01b03851660009081526002602052604081208054916103818361128a565b90915550506001600160a01b0385166000818152600260205260409020547ff695ec15d305120cded68d2c6783c1b79fdb02dd3da48ca04f42ce2d0de7eb9a906103cd906001906112a3565b846040516103dc9291906112b6565b60405180910390a25050505050565b6001600160a01b03808316600090815260036020908152604080832093851683529281528282208351808501909452805460ff1615158085526001909101549184019190915290919061044257600091505061046e565b600081602001511180156104595750806020015142115b1561046857600091505061046e565b60019150505b92915050565b6104a160405180608001604052806060815260200160001515815260200160008152602001606081525090565b6000546001600160a01b03163314806104c25750336001600160a01b038416145b806104d257506104d283336103eb565b6104ee5760405162461bcd60e51b81526004016102b9906112d7565b6001600160a01b03831660009081526002602052604090205482106105505760405162461bcd60e51b81526020600482015260186024820152774461746120696e646578206f7574206f6620626f756e647360401b60448201526064016102b9565b6001600160a01b038316600090815260016020526040902080548390811061057a5761057a61130e565b90600052602060002090600402016040518060800160405290816000820180546105a39061112b565b80601f01602080910402602001604051908101604052809291908181526020018280546105cf9061112b565b801561061c5780601f106105f15761010080835404028352916020019161061c565b820191906000526020600020905b8154815290600101906020018083116105ff57829003601f168201915b5050509183525050600182015460ff1615156020820152600282015460408201526003820180546060909201916106529061112b565b80601f016020809104026020016040519081016040528092919081815260200182805461067e9061112b565b80156106cb5780601f106106a0576101008083540402835291602001916106cb565b820191906000526020600020905b8154815290600101906020018083116106ae57829003601f168201915b505050505081525050905092915050565b600080546001600160a01b03163314806106fe5750336001600160a01b038416145b8061070e575061070e83336103eb565b61072a5760405162461bcd60e51b81526004016102b9906112d7565b6000805b6001600160a01b03851660009081526002602052604090205481101561082957838051906020012060016000876001600160a01b03166001600160a01b03168152602001908152602001600020828154811061078c5761078c61130e565b90600052602060002090600402016003016040516107aa9190611324565b604051809103902014801561080457506001600160a01b03851660009081526001602052604081208054839081106107e4576107e461130e565b906000526020600020906004020160000180546108009061112b565b9050115b1561081757816108138161128a565b9250505b806108218161128a565b91505061072e565b509392505050565b60606108456000546001600160a01b031690565b6001600160a01b0316336001600160a01b0316148061086c5750336001600160a01b038316145b8061087c575061087c82336103eb565b6108985760405162461bcd60e51b81526004016102b9906112d7565b6001600160a01b038216600090815260016020908152604080832080548251818502810185019093528083529193909284015b82821015610a3e57838290600052602060002090600402016040518060800160405290816000820180546108fe9061112b565b80601f016020809104026020016040519081016040528092919081815260200182805461092a9061112b565b80156109775780601f1061094c57610100808354040283529160200191610977565b820191906000526020600020905b81548152906001019060200180831161095a57829003601f168201915b5050509183525050600182015460ff1615156020820152600282015460408201526003820180546060909201916109ad9061112b565b80601f01602080910402602001604051908101604052809291908181526020018280546109d99061112b565b8015610a265780601f106109fb57610100808354040283529160200191610a26565b820191906000526020600020905b815481529060010190602001808311610a0957829003601f168201915b505050505081525050815260200190600101906108cb565b505050509050919050565b610a51610d73565b610a5b6000610da0565b565b3360009081526003602090815260408083206001600160a01b038516845290915290205460ff16610ad05760405162461bcd60e51b815260206004820152601e60248201527f54686572617069737420646f6573206e6f74206861766520616363657373000060448201526064016102b9565b3360008181526003602090815260408083206001600160a01b0386168085529252808320805460ff19169055519092917f825c8be24eb0df19500f63e86c29e7d0d951e73056b889b891d85e40938d9b6e91a350565b6001600160a01b038216610b7c5760405162461bcd60e51b815260206004820152601960248201527f496e76616c69642074686572617069737420616464726573730000000000000060448201526064016102b9565b8015610bd157428111610bd15760405162461bcd60e51b815260206004820181905260248201527f45787069726174696f6e206d75737420626520696e207468652066757475726560448201526064016102b9565b60408051808201825260018082526020808301858152336000818152600384528681206001600160a01b038a16808352908552908790209551865460ff1916901515178655915194909301939093559251848152919290917f65d0cc1e52d49938ca4ad9f423c79c1b84d914b9a683fbc5d3f93ac3cc5635f5910160405180910390a35050565b336000908152600260205260409020548110610cb15760405162461bcd60e51b81526020600482015260186024820152774461746120696e646578206f7574206f6620626f756e647360401b60448201526064016102b9565b60408051602080820183526000808352338152600190915291909120805483908110610cdf57610cdf61130e565b90600052602060002090600402016000019081610cfc91906111b4565b5060405181815233907fbf9d54207488d1e1fd46887891f6bc435473d1c95b3ce2df849f57de7b4bdc069060200160405180910390a250565b610d3d610d73565b6001600160a01b038116610d6757604051631e4fbdf760e01b8152600060048201526024016102b9565b610d7081610da0565b50565b6000546001600160a01b03163314610a5b5760405163118cdaa760e01b81523360048201526024016102b9565b600080546001600160a01b038381166001600160a01b0319831681178455604051919092169283917f8be0079c531659141344cd1fd0a4f28419497f9722a3daafe3b4186f6b6457e09190a35050565b80356001600160a01b0381168114610e0757600080fd5b919050565b634e487b7160e01b600052604160045260246000fd5b600082601f830112610e3357600080fd5b813567ffffffffffffffff80821115610e4e57610e4e610e0c565b604051601f8301601f19908116603f01168101908282118183101715610e7657610e76610e0c565b81604052838152866020858801011115610e8f57600080fd5b836020870160208301376000602085830101528094505050505092915050565b60008060008060808587031215610ec557600080fd5b610ece85610df0565b9350602085013567ffffffffffffffff80821115610eeb57600080fd5b610ef788838901610e22565b9450604087013591508115158214610f0e57600080fd5b90925060608601359080821115610f2457600080fd5b50610f3187828801610e22565b91505092959194509250565b60008060408385031215610f5057600080fd5b610f5983610df0565b9150610f6760208401610df0565b90509250929050565b60008060408385031215610f8357600080fd5b610f8c83610df0565b946020939093013593505050565b6000815180845260005b81811015610fc057602081850181015186830182015201610fa4565b506000602082860101526020601f19601f83011685010191505092915050565b6000815160808452610ff56080850182610f9a565b905060208301511515602085015260408301516040850152606083015184820360608601526110248282610f9a565b95945050505050565b6020815260006110406020830184610fe0565b9392505050565b6000806040838503121561105a57600080fd5b61106383610df0565b9150602083013567ffffffffffffffff81111561107f57600080fd5b61108b85828601610e22565b9150509250929050565b6000602082840312156110a757600080fd5b61104082610df0565b6000602080830181845280855180835260408601915060408160051b870101925083870160005b8281101561110557603f198886030184526110f3858351610fe0565b945092850192908501906001016110d7565b5092979650505050505050565b60006020828403121561112457600080fd5b5035919050565b600181811c9082168061113f57607f821691505b60208210810361115f57634e487b7160e01b600052602260045260246000fd5b50919050565b601f8211156111af57600081815260208120601f850160051c8101602086101561118c5750805b601f850160051c820191505b818110156111ab57828155600101611198565b5050505b505050565b815167ffffffffffffffff8111156111ce576111ce610e0c565b6111e2816111dc845461112b565b84611165565b602080601f83116001811461121757600084156111ff5750858301515b600019600386901b1c1916600185901b1785556111ab565b600085815260208120601f198616915b8281101561124657888601518255948401946001909101908401611227565b50858210156112645787850151600019600388901b60f8161c191681555b5050505050600190811b01905550565b634e487b7160e01b600052601160045260246000fd5b60006001820161129c5761129c611274565b5060010190565b8181038181111561046e5761046e611274565b8281526040602082015260006112cf6040830184610f9a565b949350505050565b6020808252601d908201527f4e6f7420617574686f72697a656420746f206163636573732064617461000000604082015260600190565b634e487b7160e01b600052603260045260246000fd5b60008083546113328161112b565b6001828116801561134a576001811461135f5761138e565b60ff198416875282151583028701945061138e565b8760005260208060002060005b858110156113855781548a82015290840190820161136c565b50505082870194505b5092969550505050505056fea2646970667358221220c747b80195007651155669f42485aa5ce1422c759c6bad85defb61c38777e6fd64736f6c63430008140033",
  "linkReferences": {},
  "deployedLinkReferences": {}
}