{
  "_format": "hh-sol-artifact-1",
  "contractName": "TherapistVerification",
  "sourceName": "contracts/TherapistVerification.sol",
  "abi": [
    {
      "inputs": [
        {
          "internalType": "address",
          "name": "initialOwner",
          "type": "address"
        }
      ],
      "stateMutability": "nonpayable",
      "type": "constructor"
    },
    {
      "inputs": [
        {
          "internalType": "address",
          "name": "sender",
          "type": "address"
        },
        {
          "internalType": "uint256",
          "name": "tokenId",
          "type": "uint256"
        },
        {
          "internalType": "address",
          "name": "owner",
          "type": "address"
        }
      ],
      "name": "ERC721IncorrectOwner",
      "type": "error"
    },
    {
      "inputs": [
        {
          "internalType": "address",
          "name": "operator",
          "type": "address"
        },
        {
          "internalType": "uint256",
          "name": "tokenId",
          "type": "uint256"
        }
      ],
      "name": "ERC721InsufficientApproval",
      "type": "error"
    },
    {
      "inputs": [
        {
          "internalType": "address",
          "name": "approver",
          "type": "address"
        }
      ],
      "name": "ERC721InvalidApprover",
      "type": "error"
    },
    {
      "inputs": [
        {
          "internalType": "address",
          "name": "operator",
          "type": "address"
        }
      ],
      "name": "ERC721InvalidOperator",
      "type": "error"
    },
    {
      "inputs": [
        {
          "internalType": "address",
          "name": "owner",
          "type": "address"
        }
      ],
      "name": "ERC721InvalidOwner",
      "type": "error"
    },
    {
      "inputs": [
        {
          "internalType": "address",
          "name": "receiver",
          "type": "address"
        }
      ],
      "name": "ERC721InvalidReceiver",
      "type": "error"
    },
    {
      "inputs": [
        {
          "internalType": "address",
          "name": "sender",
          "type": "address"
        }
      ],
      "name": "ERC721InvalidSender",
      "type": "error"
    },
    {
      "inputs": [
        {
          "internalType": "uint256",
          "name": "tokenId",
          "type": "uint256"
        }
      ],
      "name": "ERC721NonexistentToken",
      "type": "error"
    },
    {
      "inputs": [
        {
          "internalType": "address",
          "name": "owner",
          "type": "address"
        }
      ],
      "name": "OwnableInvalidOwner",
      "type": "error"
    },
    {
      "inputs": [
        {
          "internalType": "address",
          "name": "account",
          "type": "address"
        }
      ],
      "name": "OwnableUnauthorizedAccount",
      "type": "error"
    },
    {
      "anonymous": false,
      "inputs": [
        {
          "indexed": true,
          "internalType": "address",
          "name": "owner",
          "type": "address"
        },
        {
          "indexed": true,
          "internalType": "address",
          "name": "approved",
          "type": "address"
        },
        {
          "indexed": true,
          "internalType": "uint256",
          "name": "tokenId",
          "type": "uint256"
        }
      ],
      "name": "Approval",
      "type": "event"
    },
    {
      "anonymous": false,
      "inputs": [
        {
          "indexed": true,
          "internalType": "address",
          "name": "owner",
          "type": "address"
        },
        {
          "indexed": true,
          "internalType": "address",
          "name": "operator",
          "type": "address"
        },
        {
          "indexed": false,
          "internalType": "bool",
          "name": "approved",
          "type": "bool"
        }
      ],
      "name": "ApprovalForAll",
      "type": "event"
    },
    {
      "anonymous": false,
      "inputs": [
        {
          "indexed": false,
          "internalType": "uint256",
          "name": "_fromTokenId",
          "type": "uint256"
        },
        {
          "indexed": false,
          "internalType": "uint256",
          "name": "_toTokenId",
          "type": "uint256"
        }
      ],
      "name": "BatchMetadataUpdate",
      "type": "event"
    },
    {
      "anonymous": false,
      "inputs": [
        {
          "indexed": false,
          "internalType": "uint256",
          "name": "tokenId",
          "type": "uint256"
        },
        {
          "indexed": false,
          "internalType": "string",
          "name": "reason",
          "type": "string"
        }
      ],
      "name": "CredentialRevoked",
      "type": "event"
    },
    {
      "anonymous": false,
      "inputs": [
        {
          "indexed": false,
          "internalType": "uint256",
          "name": "_tokenId",
          "type": "uint256"
        }
      ],
      "name": "MetadataUpdate",
      "type": "event"
    },
    {
      "anonymous": false,
      "inputs": [
        {
          "indexed": true,
          "internalType": "address",
          "name": "previousOwner",
          "type": "address"
        },
        {
          "indexed": true,
          "internalType": "address",
          "name": "newOwner",
          "type": "address"
        }
      ],
      "name": "OwnershipTransferred",
      "type": "event"
    },
    {
      "anonymous": false,
      "inputs": [
        {
          "indexed": true,
          "internalType": "address",
          "name": "therapist",
          "type": "address"
        },
        {
          "indexed": false,
          "internalType": "uint256",
          "name": "tokenId",
          "type": "uint256"
        },
        {
          "indexed": false,
          "internalType": "string",
          "name": "licenseNumber",
          "type": "string"
        }
      ],
      "name": "TherapistVerified",
      "type": "event"
    },
    {
      "anonymous": false,
      "inputs": [
        {
          "indexed": true,
          "internalType": "address",
          "name": "from",
          "type": "address"
        },
        {
          "indexed": true,
          "internalType": "address",
          "name": "to",
          "type": "address"
        },
        {
          "indexed": true,
          "internalType": "uint256",
          "name": "tokenId",
          "type": "uint256"
        }
      ],
      "name": "Transfer",
      "type": "event"
    },
    {
      "inputs": [
        {
          "internalType": "address",
          "name": "",
          "type": "address"
        }
      ],
      "name": "addressToTokenId",
      "outputs": [
        {
          "internalType": "uint256",
          "name": "",
          "type": "uint256"
        }
      ],
      "stateMutability": "view",
      "type": "function"
    },
    {
      "inputs": [
        {
          "internalType": "address",
          "name": "to",
          "type": "address"
        },
        {
          "internalType": "uint256",
          "name": "tokenId",
          "type": "uint256"
        }
      ],
      "name": "approve",
      "outputs": [],
      "stateMutability": "nonpayable",
      "type": "function"
    },
    {
      "inputs": [
        {
          "internalType": "address",
          "name": "owner",
          "type": "address"
        }
      ],
      "name": "balanceOf",
      "outputs": [
        {
          "internalType": "uint256",
          "name": "",
          "type": "uint256"
        }
      ],
      "stateMutability": "view",
      "type": "function"
    },
    {
      "inputs": [
        {
          "internalType": "uint256",
          "name": "",
          "type": "uint256"
        }
      ],
      "name": "credentials",
      "outputs": [
        {
          "internalType": "string",
          "name": "licenseNumber",
          "type": "string"
        },
        {
          "internalType": "string",
          "name": "licenseType",
          "type": "string"
        },
        {
          "internalType": "string",
          "name": "jurisdiction",
          "type": "string"
        },
        {
          "internalType": "uint256",
          "name": "expiration",
          "type": "uint256"
        },
        {
          "internalType": "bool",
          "name": "isVerified",
          "type": "bool"
        }
      ],
      "stateMutability": "view",
      "type": "function"
    },
    {
      "inputs": [
        {
          "internalType": "uint256",
          "name": "tokenId",
          "type": "uint256"
        }
      ],
      "name": "getApproved",
      "outputs": [
        {
          "internalType": "address",
          "name": "",
          "type": "address"
        }
      ],
      "stateMutability": "view",
      "type": "function"
    },
    {
      "inputs": [
        {
          "internalType": "address",
          "name": "therapist",
          "type": "address"
        }
      ],
      "name": "getTherapistCredential",
      "outputs": [
        {
          "components": [
            {
              "internalType": "string",
              "name": "licenseNumber",
              "type": "string"
            },
            {
              "internalType": "string",
              "name": "licenseType",
              "type": "string"
            },
            {
              "internalType": "string",
              "name": "jurisdiction",
              "type": "string"
            },
            {
              "internalType": "uint256",
              "name": "expiration",
              "type": "uint256"
            },
            {
              "internalType": "bool",
              "name": "isVerified",
              "type": "bool"
            }
          ],
          "internalType": "struct TherapistVerification.Credential",
          "name": "",
          "type": "tuple"
        }
      ],
      "stateMutability": "view",
      "type": "function"
    },
    {
      "inputs": [
        {
          "internalType": "address",
          "name": "owner",
          "type": "address"
        },
        {
          "internalType": "address",
          "name": "operator",
          "type": "address"
        }
      ],
      "name": "isApprovedForAll",
      "outputs": [
        {
          "internalType": "bool",
          "name": "",
          "type": "bool"
        }
      ],
      "stateMutability": "view",
      "type": "function"
    },
    {
      "inputs": [
        {
          "internalType": "address",
          "name": "therapist",
          "type": "address"
        }
      ],
      "name": "isVerifiedTherapist",
      "outputs": [
        {
          "internalType": "bool",
          "name": "",
          "type": "bool"
        }
      ],
      "stateMutability": "view",
      "type": "function"
    },
    {
      "inputs": [],
      "name": "name",
      "outputs": [
        {
          "internalType": "string",
          "name": "",
          "type": "string"
        }
      ],
      "stateMutability": "view",
      "type": "function"
    },
    {
      "inputs": [],
      "name": "owner",
      "outputs": [
        {
          "internalType": "address",
          "name": "",
          "type": "address"
        }
      ],
      "stateMutability": "view",
      "type": "function"
    },
    {
      "inputs": [
        {
          "internalType": "uint256",
          "name": "tokenId",
          "type": "uint256"
        }
      ],
      "name": "ownerOf",
      "outputs": [
        {
          "internalType": "address",
          "name": "",
          "type": "address"
        }
      ],
      "stateMutability": "view",
      "type": "function"
    },
    {
      "inputs": [],
      "name": "renounceOwnership",
      "outputs": [],
      "stateMutability": "nonpayable",
      "type": "function"
    },
    {
      "inputs": [
        {
          "internalType": "uint256",
          "name": "tokenId",
          "type": "uint256"
        },
        {
          "internalType": "string",
          "name": "reason",
          "type": "string"
        }
      ],
      "name": "revokeVerification",
      "outputs": [],
      "stateMutability": "nonpayable",
      "type": "function"
    },
    {
      "inputs": [
        {
          "internalType": "address",
          "name": "from",
          "type": "address"
        },
        {
          "internalType": "address",
          "name": "to",
          "type": "address"
        },
        {
          "internalType": "uint256",
          "name": "tokenId",
          "type": "uint256"
        }
      ],
      "name": "safeTransferFrom",
      "outputs": [],
      "stateMutability": "nonpayable",
      "type": "function"
    },
    {
      "inputs": [
        {
          "internalType": "address",
          "name": "from",
          "type": "address"
        },
        {
          "internalType": "address",
          "name": "to",
          "type": "address"
        },
        {
          "internalType": "uint256",
          "name": "tokenId",
          "type": "uint256"
        },
        {
          "internalType": "bytes",
          "name": "data",
          "type": "bytes"
        }
      ],
      "name": "safeTransferFrom",
      "outputs": [],
      "stateMutability": "nonpayable",
      "type": "function"
    },
    {
      "inputs": [
        {
          "internalType": "address",
          "name": "operator",
          "type": "address"
        },
        {
          "internalType": "bool",
          "name": "approved",
          "type": "bool"
        }
      ],
      "name": "setApprovalForAll",
      "outputs": [],
      "stateMutability": "nonpayable",
      "type": "function"
    },
    {
      "inputs": [
        {
          "internalType": "bytes4",
          "name": "interfaceId",
          "type": "bytes4"
        }
      ],
      "name": "supportsInterface",
      "outputs": [
        {
          "internalType": "bool",
          "name": "",
          "type": "bool"
        }
      ],
      "stateMutability": "view",
      "type": "function"
    },
    {
      "inputs": [],
      "name": "symbol",
      "outputs": [
        {
          "internalType": "string",
          "name": "",
          "type": "string"
        }
      ],
      "stateMutability": "view",
      "type": "function"
    },
    {
      "inputs": [
        {
          "internalType": "uint256",
          "name": "tokenId",
          "type": "uint256"
        }
      ],
      "name": "tokenURI",
      "outputs": [
        {
          "internalType": "string",
          "name": "",
          "type": "string"
        }
      ],
      "stateMutability": "view",
      "type": "function"
    },
    {
      "inputs": [
        {
          "internalType": "address",
          "name": "from",
          "type": "address"
        },
        {
          "internalType": "address",
          "name": "to",
          "type": "address"
        },
        {
          "internalType": "uint256",
          "name": "tokenId",
          "type": "uint256"
        }
      ],
      "name": "transferFrom",
      "outputs": [],
      "stateMutability": "nonpayable",
      "type": "function"
    },
    {
      "inputs": [
        {
          "internalType": "address",
          "name": "newOwner",
          "type": "address"
        }
      ],
      "name": "transferOwnership",
      "outputs": [],
      "stateMutability": "nonpayable",
      "type": "function"
    },
    {
      "inputs": [
        {
          "internalType": "uint256",
          "name": "tokenId",
          "type": "uint256"
        },
        {
          "internalType": "uint256",
          "name": "newExpiration",
          "type": "uint256"
        }
      ],
      "name": "updateExpiration",
      "outputs": [],
      "stateMutability": "nonpayable",
      "type": "function"
    },
    {
      "inputs": [
        {
          "internalType": "address",
          "name": "to",
          "type": "address"
        },
        {
          "internalType": "string",
          "name": "licenseNumber",
          "type": "string"
        },
        {
          "internalType": "string",
          "name": "licenseType",
          "type": "string"
        },
        {
          "internalType": "string",
          "name": "jurisdiction",
          "type": "string"
        },
        {
          "internalType": "uint256",
          "name": "expiration",
          "type": "uint256"
        },
        {
          "internalType": "string",
          "name": "uri",
          "type": "string"
        }
      ],
      "name": "verifyTherapist",
      "outputs": [],
      "stateMutability": "nonpayable",
      "type": "function"
    }
  ],
  "bytecode": "0x60806040523480156200001157600080fd5b50604051620023d7380380620023d7833981016040819052620000349162000138565b60408051808201825260208082527f4e6575726f53796e632054686572617069737420566572696669636174696f6e818301528251808401909352600783526609c8aaaa49ea8960cb1b90830152829160006200009283826200020f565b506001620000a182826200020f565b5050506001600160a01b038116620000d357604051631e4fbdf760e01b81526000600482015260240160405180910390fd5b620000de81620000e6565b5050620002db565b600780546001600160a01b038381166001600160a01b0319831681179093556040519116919082907f8be0079c531659141344cd1fd0a4f28419497f9722a3daafe3b4186f6b6457e090600090a35050565b6000602082840312156200014b57600080fd5b81516001600160a01b03811681146200016357600080fd5b9392505050565b634e487b7160e01b600052604160045260246000fd5b600181811c908216806200019557607f821691505b602082108103620001b657634e487b7160e01b600052602260045260246000fd5b50919050565b601f8211156200020a57600081815260208120601f850160051c81016020861015620001e55750805b601f850160051c820191505b818110156200020657828155600101620001f1565b5050505b505050565b81516001600160401b038111156200022b576200022b6200016a565b62000243816200023c845462000180565b84620001bc565b602080601f8311600181146200027b5760008415620002625750858301515b600019600386901b1c1916600185901b17855562000206565b600085815260208120601f198616915b82811015620002ac578886015182559484019460019091019084016200028b565b5085821015620002cb5787850151600019600388901b60f8161c191681555b5050505050600190811b01905550565b6120ec80620002eb6000396000f3fe608060405234801561001057600080fd5b506004361061014d5760003560e01c8063715018a6116100c3578063ba572ece1161007c578063ba572ece146102c9578063c87b56dd146102e9578063e04c38d4146102fc578063e0574e3f1461030f578063e985e9c514610333578063f2fde38b1461034657600080fd5b8063715018a61461026f5780638da5cb5b1461027757806395d89b4114610288578063a00a460114610290578063a22cb465146102a3578063b88d4fde146102b657600080fd5b806333de1b3f1161011557806333de1b3f146101e257806342842e0e146101f5578063483b26c1146102085780636352211e1461021b5780636511bf2e1461022e57806370a082311461025c57600080fd5b806301ffc9a71461015257806306fdde031461017a578063081812fc1461018f578063095ea7b3146101ba57806323b872dd146101cf575b600080fd5b6101656101603660046119e3565b610359565b60405190151581526020015b60405180910390f35b610182610384565b6040516101719190611a50565b6101a261019d366004611a63565b610416565b6040516001600160a01b039091168152602001610171565b6101cd6101c8366004611a98565b61043f565b005b6101cd6101dd366004611ac2565b61044e565b6101656101f0366004611afe565b6104de565b6101cd610203366004611ac2565b61070d565b6101cd610216366004611bc5565b61072d565b6101a2610229366004611a63565b610870565b61024e61023c366004611afe565b600a6020526000908152604090205481565b604051908152602001610171565b61024e61026a366004611afe565b61087b565b6101cd6108c3565b6007546001600160a01b03166101a2565b6101826108d7565b6101cd61029e366004611c0c565b6108e6565b6101cd6102b1366004611c2e565b6109b9565b6101cd6102c4366004611c6a565b6109c4565b6102dc6102d7366004611afe565b6109dc565b6040516101719190611ce6565b6101826102f7366004611a63565b610c74565b6101cd61030a366004611d61565b610d7d565b61032261031d366004611a63565b610f5d565b604051610171959493929190611e27565b610165610341366004611e7a565b611127565b6101cd610354366004611afe565b611155565b60006001600160e01b03198216632483248360e11b148061037e575061037e82611193565b92915050565b60606000805461039390611ead565b80601f01602080910402602001604051908101604052809291908181526020018280546103bf90611ead565b801561040c5780601f106103e15761010080835404028352916020019161040c565b820191906000526020600020905b8154815290600101906020018083116103ef57829003601f168201915b5050505050905090565b6000610421826111e3565b506000828152600460205260409020546001600160a01b031661037e565b61044a82823361121c565b5050565b6001600160a01b03821661047d57604051633250574960e11b8152600060048201526024015b60405180910390fd5b600061048a838333611229565b9050836001600160a01b0316816001600160a01b0316146104d8576040516364283d7b60e01b81526001600160a01b0380861660048301526024820184905282166044820152606401610474565b50505050565b6001600160a01b0381166000908152600a60205260408120548082036105075750600092915050565b600081815260096020526040808220815160a0810190925280548290829061052e90611ead565b80601f016020809104026020016040519081016040528092919081815260200182805461055a90611ead565b80156105a75780601f1061057c576101008083540402835291602001916105a7565b820191906000526020600020905b81548152906001019060200180831161058a57829003601f168201915b505050505081526020016001820180546105c090611ead565b80601f01602080910402602001604051908101604052809291908181526020018280546105ec90611ead565b80156106395780601f1061060e57610100808354040283529160200191610639565b820191906000526020600020905b81548152906001019060200180831161061c57829003601f168201915b5050505050815260200160028201805461065290611ead565b80601f016020809104026020016040519081016040528092919081815260200182805461067e90611ead565b80156106cb5780601f106106a0576101008083540402835291602001916106cb565b820191906000526020600020905b8154815290600101906020018083116106ae57829003601f168201915b50505091835250506003820154602082015260049091015460ff161515604090910152608081015190915080156107055750428160600151115b949350505050565b610728838383604051806020016040528060008152506109c4565b505050565b610735611322565b6000828152600260205260409020546001600160a01b03166107905760405162461bcd60e51b8152602060048201526014602482015273151bdad95b88191bd95cc81b9bdd08195e1a5cdd60621b6044820152606401610474565b60008281526009602052604090206004015460ff166107f15760405162461bcd60e51b815260206004820152601a60248201527f43726564656e7469616c20616c7265616479207265766f6b65640000000000006044820152606401610474565b6000828152600960205260408120600401805460ff1916905561081383610870565b6001600160a01b0381166000908152600a602052604080822091909155519091507f37ec22acf5d9778ea37b449f7834d99acb0c9632e381d2ceba59480d79ca91a7906108639085908590611ee7565b60405180910390a1505050565b600061037e826111e3565b60006001600160a01b0382166108a7576040516322718ad960e21b815260006004820152602401610474565b506001600160a01b031660009081526003602052604090205490565b6108cb611322565b6108d5600061134f565b565b60606001805461039390611ead565b6108ee611322565b6000828152600260205260409020546001600160a01b03166109495760405162461bcd60e51b8152602060048201526014602482015273151bdad95b88191bd95cc81b9bdd08195e1a5cdd60621b6044820152606401610474565b4281116109a45760405162461bcd60e51b8152602060048201526024808201527f4e65772065787069726174696f6e206d75737420626520696e207468652066756044820152637475726560e01b6064820152608401610474565b60009182526009602052604090912060030155565b61044a3383836113a1565b6109cf84848461044e565b6104d83385858585611440565b610a106040518060a00160405280606081526020016060815260200160608152602001600081526020016000151581525090565b6001600160a01b0382166000908152600a602052604081205490819003610a855760405162461bcd60e51b8152602060048201526024808201527f4e6f2063726564656e7469616c20666f756e6420666f722074686973206164646044820152637265737360e01b6064820152608401610474565b60008181526009602052604090819020815160a08101909252805482908290610aad90611ead565b80601f0160208091040260200160405190810160405280929190818152602001828054610ad990611ead565b8015610b265780601f10610afb57610100808354040283529160200191610b26565b820191906000526020600020905b815481529060010190602001808311610b0957829003601f168201915b50505050508152602001600182018054610b3f90611ead565b80601f0160208091040260200160405190810160405280929190818152602001828054610b6b90611ead565b8015610bb85780601f10610b8d57610100808354040283529160200191610bb8565b820191906000526020600020905b815481529060010190602001808311610b9b57829003601f168201915b50505050508152602001600282018054610bd190611ead565b80601f0160208091040260200160405190810160405280929190818152602001828054610bfd90611ead565b8015610c4a5780601f10610c1f57610100808354040283529160200191610c4a565b820191906000526020600020905b815481529060010190602001808311610c2d57829003601f168201915b50505091835250506003820154602082015260049091015460ff1615156040909101529392505050565b6060610c7f826111e3565b5060008281526006602052604081208054610c9990611ead565b80601f0160208091040260200160405190810160405280929190818152602001828054610cc590611ead565b8015610d125780601f10610ce757610100808354040283529160200191610d12565b820191906000526020600020905b815481529060010190602001808311610cf557829003601f168201915b505050505090506000610d3060408051602081019091526000815290565b90508051600003610d42575092915050565b815115610d74578082604051602001610d5c929190611f00565b60405160208183030381529060405292505050919050565b6107058461156b565b610d85611322565b6001600160a01b0386166000908152600a602052604090205415610dfc5760405162461bcd60e51b815260206004820152602860248201527f4164647265737320616c7265616479206861732061207665726966696361746960448201526737b7103a37b5b2b760c11b6064820152608401610474565b428211610e405760405162461bcd60e51b8152602060048201526012602482015271131a58d95b9cd9481a5cc8195e1c1a5c995960721b6044820152606401610474565b6008805460009182610e5183611f2f565b919050559050610e6187826115e0565b610e6b8183611645565b6040805160a08101825287815260208082018890528183018790526060820186905260016080830152600084815260099091529190912081518190610eb09082611f9c565b5060208201516001820190610ec59082611f9c565b5060408201516002820190610eda9082611f9c565b50606082015160038201556080909101516004909101805460ff19169115159190911790556001600160a01b0387166000818152600a602052604090819020839055517ff61ff7ff3a1ac1f5e40c30aa2b94b598eeb3d5df40054ecd24576dde35160a8490610f4c9084908a90611ee7565b60405180910390a250505050505050565b600960205260009081526040902080548190610f7890611ead565b80601f0160208091040260200160405190810160405280929190818152602001828054610fa490611ead565b8015610ff15780601f10610fc657610100808354040283529160200191610ff1565b820191906000526020600020905b815481529060010190602001808311610fd457829003601f168201915b50505050509080600101805461100690611ead565b80601f016020809104026020016040519081016040528092919081815260200182805461103290611ead565b801561107f5780601f106110545761010080835404028352916020019161107f565b820191906000526020600020905b81548152906001019060200180831161106257829003601f168201915b50505050509080600201805461109490611ead565b80601f01602080910402602001604051908101604052809291908181526020018280546110c090611ead565b801561110d5780601f106110e25761010080835404028352916020019161110d565b820191906000526020600020905b8154815290600101906020018083116110f057829003601f168201915b50505050600383015460049093015491929160ff16905085565b6001600160a01b03918216600090815260056020908152604080832093909416825291909152205460ff1690565b61115d611322565b6001600160a01b03811661118757604051631e4fbdf760e01b815260006004820152602401610474565b6111908161134f565b50565b60006001600160e01b031982166380ac58cd60e01b14806111c457506001600160e01b03198216635b5e139f60e01b145b8061037e57506301ffc9a760e01b6001600160e01b031983161461037e565b6000818152600260205260408120546001600160a01b03168061037e57604051637e27328960e01b815260048101849052602401610474565b6107288383836001611695565b6000828152600260205260408120546001600160a01b03908116908316156112565761125681848661179b565b6001600160a01b0381161561129457611273600085600080611695565b6001600160a01b038116600090815260036020526040902080546000190190555b6001600160a01b038516156112c3576001600160a01b0385166000908152600360205260409020805460010190555b60008481526002602052604080822080546001600160a01b0319166001600160a01b0389811691821790925591518793918516917fddf252ad1be2c89b69c2b068fc378daa952ba7f163c4a11628f55a4df523b3ef91a4949350505050565b6007546001600160a01b031633146108d55760405163118cdaa760e01b8152336004820152602401610474565b600780546001600160a01b038381166001600160a01b0319831681179093556040519116919082907f8be0079c531659141344cd1fd0a4f28419497f9722a3daafe3b4186f6b6457e090600090a35050565b6001600160a01b0382166113d357604051630b61174360e31b81526001600160a01b0383166004820152602401610474565b6001600160a01b03838116600081815260056020908152604080832094871680845294825291829020805460ff191686151590811790915591519182527f17307eab39ab6107e8899845ad3d59bd9653f200f220920489ca2b5937696c31910160405180910390a3505050565b6001600160a01b0383163b1561156457604051630a85bd0160e11b81526001600160a01b0384169063150b7a029061148290889088908790879060040161205c565b6020604051808303816000875af19250505080156114bd575060408051601f3d908101601f191682019092526114ba91810190612099565b60015b611526573d8080156114eb576040519150601f19603f3d011682016040523d82523d6000602084013e6114f0565b606091505b50805160000361151e57604051633250574960e11b81526001600160a01b0385166004820152602401610474565b805181602001fd5b6001600160e01b03198116630a85bd0160e11b1461156257604051633250574960e11b81526001600160a01b0385166004820152602401610474565b505b5050505050565b6060611576826111e3565b50600061158e60408051602081019091526000815290565b905060008151116115ae57604051806020016040528060008152506115d9565b806115b8846117ff565b6040516020016115c9929190611f00565b6040516020818303038152906040525b9392505050565b6001600160a01b03821661160a57604051633250574960e11b815260006004820152602401610474565b600061161883836000611229565b90506001600160a01b03811615610728576040516339e3563760e11b815260006004820152602401610474565b600082815260066020526040902061165d8282611f9c565b506040518281527ff8e1a15aba9398e019f0b49df1a4fde98ee17ae345cb5f6b5e2c27f5033e8ce79060200160405180910390a15050565b80806116a957506001600160a01b03821615155b1561176b5760006116b9846111e3565b90506001600160a01b038316158015906116e55750826001600160a01b0316816001600160a01b031614155b80156116f857506116f68184611127565b155b156117215760405163a9fbf51f60e01b81526001600160a01b0384166004820152602401610474565b81156117695783856001600160a01b0316826001600160a01b03167f8c5be1e5ebec7d5bd14f71427d1e84f3dd0314c0f7b2291e5b200ac8c7c3b92560405160405180910390a45b505b5050600090815260046020526040902080546001600160a01b0319166001600160a01b0392909216919091179055565b6117a6838383611892565b610728576001600160a01b0383166117d457604051637e27328960e01b815260048101829052602401610474565b60405163177e802f60e01b81526001600160a01b038316600482015260248101829052604401610474565b6060600061180c836118f5565b600101905060008167ffffffffffffffff81111561182c5761182c611b19565b6040519080825280601f01601f191660200182016040528015611856576020820181803683370190505b5090508181016020015b600019016f181899199a1a9b1b9c1cb0b131b232b360811b600a86061a8153600a850494508461186057509392505050565b60006001600160a01b038316158015906107055750826001600160a01b0316846001600160a01b031614806118cc57506118cc8484611127565b806107055750506000908152600460205260409020546001600160a01b03908116911614919050565b60008072184f03e93ff9f4daa797ed6e38ed64bf6a1f0160401b83106119345772184f03e93ff9f4daa797ed6e38ed64bf6a1f0160401b830492506040015b6d04ee2d6d415b85acef81000000008310611960576d04ee2d6d415b85acef8100000000830492506020015b662386f26fc10000831061197e57662386f26fc10000830492506010015b6305f5e1008310611996576305f5e100830492506008015b61271083106119aa57612710830492506004015b606483106119bc576064830492506002015b600a831061037e5760010192915050565b6001600160e01b03198116811461119057600080fd5b6000602082840312156119f557600080fd5b81356115d9816119cd565b60005b83811015611a1b578181015183820152602001611a03565b50506000910152565b60008151808452611a3c816020860160208601611a00565b601f01601f19169290920160200192915050565b6020815260006115d96020830184611a24565b600060208284031215611a7557600080fd5b5035919050565b80356001600160a01b0381168114611a9357600080fd5b919050565b60008060408385031215611aab57600080fd5b611ab483611a7c565b946020939093013593505050565b600080600060608486031215611ad757600080fd5b611ae084611a7c565b9250611aee60208501611a7c565b9150604084013590509250925092565b600060208284031215611b1057600080fd5b6115d982611a7c565b634e487b7160e01b600052604160045260246000fd5b600067ffffffffffffffff80841115611b4a57611b4a611b19565b604051601f8501601f19908116603f01168101908282118183101715611b7257611b72611b19565b81604052809350858152868686011115611b8b57600080fd5b858560208301376000602087830101525050509392505050565b600082601f830112611bb657600080fd5b6115d983833560208501611b2f565b60008060408385031215611bd857600080fd5b82359150602083013567ffffffffffffffff811115611bf657600080fd5b611c0285828601611ba5565b9150509250929050565b60008060408385031215611c1f57600080fd5b50508035926020909101359150565b60008060408385031215611c4157600080fd5b611c4a83611a7c565b915060208301358015158114611c5f57600080fd5b809150509250929050565b60008060008060808587031215611c8057600080fd5b611c8985611a7c565b9350611c9760208601611a7c565b925060408501359150606085013567ffffffffffffffff811115611cba57600080fd5b8501601f81018713611ccb57600080fd5b611cda87823560208401611b2f565b91505092959194509250565b602081526000825160a06020840152611d0260c0840182611a24565b90506020840151601f1980858403016040860152611d208383611a24565b9250604086015191508085840301606086015250611d3e8282611a24565b915050606084015160808401526080840151151560a08401528091505092915050565b60008060008060008060c08789031215611d7a57600080fd5b611d8387611a7c565b9550602087013567ffffffffffffffff80821115611da057600080fd5b611dac8a838b01611ba5565b96506040890135915080821115611dc257600080fd5b611dce8a838b01611ba5565b95506060890135915080821115611de457600080fd5b611df08a838b01611ba5565b94506080890135935060a0890135915080821115611e0d57600080fd5b50611e1a89828a01611ba5565b9150509295509295509295565b60a081526000611e3a60a0830188611a24565b8281036020840152611e4c8188611a24565b90508281036040840152611e608187611a24565b606084019590955250509015156080909101529392505050565b60008060408385031215611e8d57600080fd5b611e9683611a7c565b9150611ea460208401611a7c565b90509250929050565b600181811c90821680611ec157607f821691505b602082108103611ee157634e487b7160e01b600052602260045260246000fd5b50919050565b8281526040602082015260006107056040830184611a24565b60008351611f12818460208801611a00565b835190830190611f26818360208801611a00565b01949350505050565b600060018201611f4f57634e487b7160e01b600052601160045260246000fd5b5060010190565b601f82111561072857600081815260208120601f850160051c81016020861015611f7d5750805b601f850160051c820191505b8181101561156257828155600101611f89565b815167ffffffffffffffff811115611fb657611fb6611b19565b611fca81611fc48454611ead565b84611f56565b602080601f831160018114611fff5760008415611fe75750858301515b600019600386901b1c1916600185901b178555611562565b600085815260208120601f198616915b8281101561202e5788860151825594840194600190910190840161200f565b508582101561204c5787850151600019600388901b60f8161c191681555b5050505050600190811b01905550565b6001600160a01b038581168252841660208201526040810183905260806060820181905260009061208f90830184611a24565b9695505050505050565b6000602082840312156120ab57600080fd5b81516115d9816119cd56fea26469706673582212209f8e7beb4ef224e5f25f5cdcc2dc8968958543816cc92811e2e3ecabab24da1264736f6c63430008140033",
  "linkReferences": {},
  "deployedLinkReferences": {}
}